:040000000C942B0031
:100004000C9400000C9400000C9400000C9400006C
:100014000C9400000C9400000C9400000C9400005C
:100024000C94BC000C9400000C945B000C94000035
:100034000C948F000C9400000C9400000C940000AD
:100044000C9400000C9400000C9400000C9400002C
:100054000000F894EE27ECBBF1E0FBBFEBBFE5BF7B
:10006400F8E1F1BDE1BD8DE0A2E0BB27ED938A95F7
:10007400E9F780E094E0A0E6ED930197E9F7E4E581
:10008400F0E085919591009761F0A591B591059067
:100094001590BF01F00105900D920197E1F7FB0166
:1000A400F0CFEFE5EDBFE4E0EEBFC0E6D1E00C94A5
:1000B4002E01AA93EA93FA93EFB7EA931A930A9359
:1000C4001BB10CB1E12FEC7101F5E02FEF3F11F4FE
:1000D4000BD51BC0EE3F59F4E1E0E0939001E091B1
:1000E4009201E0939101E0E0E09392010EC0A091AF
:1000F4009201A93050F4E0919201EF5FE0939201F4
:10010400E150F0E0ED56FE4F008309911991E99119
:10011400EFBFF991E991A9911895AA93EA93FA93FB
:10012400EFB7EA93A0918301A13021F4A091840157
:10013400A13008F419C0E0918401A0918501AE17A3
:1001440038F0E0E0E0938501D7D4E09383010CC05C
:10015400E0918501F0E0EA57FE4FE081ECB9E091CF
:100164008501EF5FE0938501E991EFBFF991E99192
:10017400A9911895AA93BA93EA93FA93EFB7EA93DD
:10018400E2B7E951E2BFF40131964F01E4E6F0E051
:100194008E169F0610F188249924689420F824FE72
:1001A40010C0DB98ADD43196B0D4A0917F01B0914A
:1001B4008001AC32E1E0BE0718F0ACD4E89424F836
:1001C40001C0DB9AADD448F4E0918101F091820141
:1001D4003196E0938101F0938201E991EFBFF991A7
:1001E400E991B991A99118951A930A9300E010E046
:1001F400E0918301E03061F57FD4E093850198D4E8
:10020400AFEFA08395D4A985A08392D4A885A083B9
:100214008FD4AF81A0838CD4AE81A08389D4AD81E7
:10022400A08386D4AC81A08383D4AB81A08380D403
:10023400AA81A0837DD4AEEFA083F801E09384016A
:10024400E0918601ECB9E1E0E0938501E09383015C
:10025400198108812A960895E8EFEBBBEFEFEABB1A
:10026400ECEFE8BBE7E0E7BBEFEFE5BBE0ECE4BBBA
:10027400EFEFE2BBE6E0E1BBE3E0E3BFE7EEE2BFC2
:10028400E0E0ECBFEFBDEEBDEDBDECBDE7BDE6BD0E
:10029400EBBDEABDE9BDE8BDE2BDE5BDE4BDE3BD3E
:1002A400E5BFE4BFE1E0E9BFE0E0EBB9E8EDEAB9BE
:1002B400E6E8E0BDE0E0E0BDE3E3E9B9E0E8E8B9A1
:1002C400E0E0E0BFE093830117D4E0938501E0E030
:1002D400E0938601E7E8F1E0A0E0A083E8E8F1E03C
:1002E400A083E9E8F1E0A083EAE8F1E0A083EBE889
:1002F400F1E0A083ECE8F1E0A083EDE8F1E0A08375
:10030400EEE8F1E0A083EFE8F1E0A083EDD3E0E0D4
:10031400E0937401E0937501E0939D01E0939E01E5
:10032400AE9AAF9A929AE2E04E2E7894662477249D
:10033400E0E2F3E06E167F0690F420FE0FC0E8942E
:1003440020F8F30131963F0155249A9902C0E1E067
:100354005E2A9D9902C0E2E05E2AF0D3E9CF02D082
:10036400FECFFFCF1A93E0919001E03061F1E0E01D
:10037400E0939001E0919401F0E0E17011F0E1E08C
:1003840001C0E0E0E0939F01E0919401F0E0E270AD
:1003940011F0E1E001C0E0E0E093A001E0919501FB
:1003A400F0E0E17029F0E1E0E0939F01E093A00127
:1003B400E0E0EA93E0919301EA93E0919401EA93F7
:1003C400E0919501C6D320FE50C0E89420F84ED0A9
:1003D400E2E04E2EE41511F475D001C084D3E0E0C0
:1003E4008399E1E01E2FA091A501A03099F4E0913A
:1003F4007401A091A201EA1769F4E0917501A0913A
:10040400A301EA1739F4E0E021FCE1E0A091A401A2
:10041400EA17E1F0E091A501E03019F4E3E0E0939C
:10042400A501A091A501A13028F0E091A501E1501A
:10043400E093A501E0EAEA93E0917401EA93E09184
:100444007501EA93E0E021FCE1E083D31093A1017C
:10045400E0917401E093A201E0917501E093A3019E
:10046400E0E021FCE1E0E093A4013BC355249A9928
:1004740002C0E1E05E2A9D9902C0E2E05E2A5ED3FA
:10048400A0916201E0916101EA1731F4A091610148
:10049400E0916001EA1709F014C0A0916301E091B2
:1004A4006001EA1771F0E0936301E0916301E17088
:1004B40021F4E0916301E27011F0E2E001C0E1E0B7
:1004C4004E2E0895E0917C01E33051F4E0917501E2
:1004D400E03031F4E0917401E03011F4839901C00B
:1004E40003C0C198C09802C02AD074D07BD0BAD0BF
:1004F40002D18AD1CFD139D221FC02C03AD308F03B
:1005040014C0E0916F01F09170013196E0936F0196
:10051400F09370012ED348F0E8EBFBE0E0936F0119
:10052400F0937001E0E0E0936E01A0917E01A83C9D
:1005340028F4E0917E01EF5FE0937E0108958399B2
:1005440020C0F50131965F01EEE1F0E0AE16BF0682
:10055400B8F05F01E0E0E0936E01E0917401E170B6
:1005640011F423FC01C00AC0E1E0E0937401DB9ABA
:10057400E1E3E0937601E0E0E0937E01E89423F880
:1005840009C00A2C0B2821F0F50131975F0102C044
:10059400689423F8A0917401A130A1F4E09176014C
:1005A400EF5FE0937601A0917601A23311F4C19A32
:1005B40008C0A0917601A43620F0E0E0E093760133
:1005C400C19807C0E0917401E03011F0C19A01C0F4
:1005D400C1980895E0917501E07111F0C09A01C0CD
:1005E400C0980895989929C0CCD23196CFD2A091C1
:1005F4006401B09165011597F8F0E5E0F0E0C6D22A
:10060400A0917401A13051F4E0917401E061C3D26E
:10061400E0E0E0937701E09378010EC0E09174018B
:10062400E03011F0BED208F407C0E0E0B4D2E0E05C
:10063400E0938101E093820109C0A3D2309719F0BD
:10064400A0D23197A3D29DD2309701F4AAD248F414
:10065400E0917701F09178013196E0937701F0937E
:1006640078010895879902C05BD208F438C0E091FC
:100674006601F09167013196E0936601F09367019A
:10068400A0916601B0916701159740F1A0916601B0
:10069400B09167011597E1F4E0917401E030B9F489
:1006A400E0917501E07139F084D2E0917501E17057
:1006B40009F085D208C0E0917501E061E09375010D
:1006C400E0E0E0936E0126D2689424F801C071D270
:1006D400E5E0F0E0E0936601F09367010BC0E09180
:1006E4006601F0916701309729F0E0E0E09366013C
:1006F400E093670108955524849902C0E1E05E2ADD
:10070400859902C0E2E05E2A869902C0E4E05E2A8E
:10071400E0916B01E0936C01E0916A01E0936B015D
:1007240050926A01A0916C01E0916B01EA1731F4D7
:10073400A0916B01E0916A01EA1709F064C0A091ED
:100744006D01E0916A01EA1711F40C940504E0913B
:100754006D01A0916A01EA275E2E50FE04C0E0916B
:100764006A01E17009F411C0E0916E01E17031F0A9
:10077400E0916E01EE7FE0936E0107C0E0916E019F
:10078400E16023D211F015D21AD251FE04C0E091D7
:100794006A01E27009F411C0E0916E01E27031F077
:1007A400E0916E01ED7FE0936E0107C0E0916E0170
:1007B400E2600BD211F0FDD102D252FE04C0E091EE
:1007C4006A01E47009F411C0E0916E01E47031F043
:1007D400E0916E01EB7FE0936E0107C0E0916E0142
:1007E400E460F3D111F0E5D1EAD1E0916A01E0933C
:1007F4006D01E0E0E0936F01E0937001E0E0E093CD
:100804007101E09372010895999934C0E4D131964D
:10081400E7D1A0916801B0916901159750F1E5E025
:10082400F0E0DED1E0E0E0936F01E0937001E0914D
:100834006E01E17021F0DF98689421F801C0DF9A1D
:10084400E0916E01E27021F0DE98689421F801C015
:10085400DE9AE0916E01E47021F0DD98689421F84D
:1008640001C0DD9AE0916E01E77011F0DC9801C0DF
:10087400DC9A0FC0B0D1309719F0ADD13197B0D117
:10088400AAD1309731F4DF9ADE9ADD9AE89421F800
:10089400DC9A089521FE19C0AE98AF989298E09121
:1008A4006E01E17011F0DA9A01C0DA98E0916E01FC
:1008B400E27011F0D99A01C0D998E0916E01E47008
:1008C40011F0D89A01C0D8984FC0AE9AE091750142
:1008D400E03041F4E0917401E07121F4A0917901D8
:1008E400A33049F4AF989298A0917901A33011F400
:1008F400AE98929A03C0AE98AF98929AE091710123
:10090400F09172013196E0937101F0937201A0911C
:100914007101B0917201D297B0F4E0916E01E1706F
:1009240011F0DA9A01C0DA98E0916E01E27011F0E8
:10093400D99A01C0D998E0916E01E47011F0D89A67
:1009440001C0D89811C0A0917101B0917201A43670
:10095400E0E0BE0720F4DA98D998D89805C0E0E022
:10096400E0937101E093720108951A9310E0E0910D
:100974009F01E03009F01160E091A001E03009F03E
:100984001260E0917A01E0937901E0917B01E093B8
:100994007A01EBE7F1E01083E0917A01A09179010B
:1009A400EA1731F4A0917A01E0917B01EA1709F08A
:1009B40095C0E0917C01A0917901EA1789F0E0915A
:1009C4007D01EF5FE0937D01E150A0917D01A730AF
:1009D40038F0E7E0E0937D01E0917901E0937C0158
:1009E400E0917C01A0917901EA1711F00C946F0554
:1009F400A33011F40C945405E0917901E17089F06D
:100A0400E0917501E160E0937501E07249F4E091D1
:100A14007501E061E093750173D0309709F0E5D07A
:100A24000BC0E0917501E17039F0E0E0E0937501ED
:100A340067D0309709F0D9D0E0917901E270E1F004
:100A4400E0917401E170B9F0E0917401E07151F446
:100A5400E0E0E0937701E0937801E0917401E061D4
:100A6400E0937401E0917401E260E093740148D072
:100A7400309709F0BAD015C0E0917401E07121F00B
:100A8400E0917401E27009F40CC0E0E0E0937401B9
:100A940037D0309709F0A9D0E0E0E0938101E093EA
:100AA40082011BC0A0917401A130B9F0E0917501DD
:100AB400E17019F0E0E0E0937501A0917E01A83C9B
:100AC40060F0E0917401E07121F0E0917401E27052
:100AD40009F403C0E0E0E093740103C0E0E0E093B4
:100AE4007D01199108950895E0E0E0939001E09369
:100AF4009101E09392010895E0E0E0938401089568
:100B0400E0917F01F09180010895E0937F01F093DB
:100B140080010895E0E0E0937F01E093800108956F
:100B2400A0918101B0918201AE35E1E0BE07089544
:100B3400F8010F5F1F4FEA57FE4F0895E0916101DE
:100B4400E0936201E0916001E093610150926001E1
:100B54000895EA93E0EFEA93E0E0AE99E1E0EA93E6
:100B6400E0E0AF99E1E0EA93E0E09299E1E0EA9312
:100B74003BCBA0916F01B0917001A83BEBE0BE07A5
:100B84000895E0916401F09165010895E093640192
:100B9400F09365010895E0937401BCDF689424F830
:100BA4000895A0917701B0917801A039E1E0BE07E2
:100BB4000895E0917501EF7EE09375010895E09149
:100BC4007501E062E09375010895E0936E01E09190
:100BD4007501E0710895E0916801F091690108954B
:100BE400E0936801F09369010895ECE2F1E08DCFA0
:00000001FF
