:0C0000000C942B000C9400000C940000E9
:10000C000C9400000C9400000C9400000C94000064
:10001C000C9400000C9400000C945B000C940000F9
:10002C000C9400000C9400000C9400000C94000044
:10003C000C9400000C9400000C9400000C94000034
:10004C000C9400000C9400000000F894EE27ECBB1C
:10005C00F1E0FBBFEBBFE5BFF8E1F1BDE1BD8DE029
:10006C00A2E0BB27ED938A95E9F780E094E0A0E647
:10007C00ED930197E9F7E4E5F0E085919591009710
:10008C0061F0A591B59105901590BF01F001059017
:10009C000D920197E1F7FB01F0CFEFE5EDBFE4E046
:1000AC00EEBFC0E6D1E00C949500AA93BA93EA9304
:1000BC00FA93EFB7EA93E2B7E951E2BFF401319654
:1000CC004F01E4E6F0E08E169F0610F18824992487
:1000DC00689420F824FE10C0DB9828D431962BD4D9
:1000EC00A0917F01B0918001AC32E1E0BE0718F025
:1000FC0027D4E89424F801C0DB9A28D448F4E09182
:10010C008101F09182013196E0938101F09382019B
:10011C00E991EFBFF991E991B991A9911895E8EF9F
:10012C00EBBBEFEFEABBECEFE8BBE7E0E7BBEFEFD5
:10013C00E5BBE0ECE4BBEFEFE2BBE0E0E1BBE3E00E
:10014C00E3BFE7EEE2BFE0E0ECBFEFBDEEBDEDBD1F
:10015C00ECBDE7BDE6BDEBBDEABDE9BDE8BDE2BD6A
:10016C00E5BDE4BDE3BDE5BFE4BFE1E0E9BFE0E828
:10017C00E8B9E0E0E0BFE0937401E0937501AE9A5A
:10018C00AF9AE2E04E2E789466247724E0E2F3E016
:10019C006E167F0690F420FE0FC0E89420F8F30151
:1001AC0031963F0155249A9902C0E1E05E2A9D994F
:1001BC0002C0E2E05E2AD2D3E9CF02D0FECFFFCF5D
:1001CC0020FE09C0E89420F807D0E2E0E41511F411
:1001DC002FD001C018D3089555249A9902C0E1E09C
:1001EC005E2A9D9902C0E2E05E2AB8D3A09162011A
:1001FC00E0916101EA1731F4A0916101E091600195
:10020C00EA1709F014C0A0916301E0916001EA17AC
:10021C0071F0E0936301E0916301E17021F4E091EE
:10022C006301E27011F0E2E001C0E1E04E2E0895AE
:10023C00E0917C01E33051F4E0917501E03031F450
:10024C00E0917401E03011F4839901C003C0C198AE
:10025C00C09802C02AD074D07BD0BAD002D17CD145
:10026C00B9D119D221FC02C084D308F014C0E0919A
:10027C006F01F09170013196E0936F01F093700172
:10028C0078D348F0E8EBFBE0E0936F01F09370015A
:10029C00E0E0E0936E01A0917E01A83C28F4E0918F
:1002AC007E01EF5FE0937E010895839920C0F501F4
:1002BC0031965F01EEE1F0E0AE16BF06B8F05F01DB
:1002CC00E0E0E0936E01E0917401E17011F423FC25
:1002DC0001C00AC0E1E0E0937401DB9AE1E3E09332
:1002EC007601E0E0E0937E01E89423F809C00A2C43
:1002FC000B2821F0F50131975F0102C0689423F8B7
:10030C00A0917401A130A1F4E0917601EF5FE0932C
:10031C007601A0917601A23311F4C19A08C0A09184
:10032C007601A43620F0E0E0E0937601C19807C096
:10033C00E0917401E03011F0C19A01C0C1980895A8
:10034C00E0917501E07111F0C09A01C0C098089558
:10035C00989929C016D3319619D3A0916401B09104
:10036C0065011597F8F0E5E0F0E010D3A091740169
:10037C00A13051F4E0917401E0610DD3E0E0E09321
:10038C007701E09378010EC0E0917401E03011F038
:10039C0008D308F407C0E0E0FED2E0E0E09381016E
:1003AC00E093820109C0EDD2309719F0EAD231976F
:1003BC00EDD2E7D2309701F4F4D248F4E091770112
:1003CC00F09178013196E0937701F09378010895DC
:1003DC00879902C0BBD208F438C0E0916601F09155
:1003EC0067013196E0936601F0936701A091660175
:1003FC00B0916701159740F1A0916601B09167012A
:10040C001597E1F4E0917401E030B9F4E0917501D5
:10041C00E07139F0CED2E0917501E17009F0CFD2E4
:10042C0008C0E0917501E061E0937501E0E0E093B4
:10043C006E0186D2689424F801C0BBD2E5E0F0E0EE
:10044C00E0936601F09367010BC0E0916601F091B7
:10045C006701309729F0E0E0E0936601E0936701D3
:10046C0008955524849902C0E1E05E2A859902C062
:10047C00E2E05E2A869902C0E4E05E2AA6D231F45C
:10048C00A0916B01E0916A01EA1709F064C0A09198
:10049C006D01E0916A01EA1711F40C94B102E0913C
:1004AC006D01A0916A01EA275E2E50FE04C0E09116
:1004BC006A01E17009F411C0E0916E01E17031F054
:1004CC00E0916E01EE7FE0936E0107C0E0916E014A
:1004DC00E1608BD211F06DD272D251FE04C0E0916A
:1004EC006A01E27009F411C0E0916E01E27031F022
:1004FC00E0916E01ED7FE0936E0107C0E0916E011B
:10050C00E26073D211F055D25AD252FE04C0E0917F
:10051C006A01E47009F411C0E0916E01E47031F0ED
:10052C00E0916E01EB7FE0936E0107C0E0916E01EC
:10053C00E4605BD211F03DD242D2E0916A01E093CB
:10054C006D01E0E0E0936F01E0937001E0E0E09377
:10055C007101E0937201089599992DC04CD2319696
:10056C004FD2A0916801B0916901159718F1E5E09F
:10057C00F0E046D2E0E0E0936F01E0937001E0918F
:10058C006E01E17021F0DF98689421F801C0DF9AC8
:10059C00E0916E01E27021F0DE98689421F801C0C0
:1005AC00DE9AE0916E01E47021F0DD98689421F8F8
:1005BC0001C0DD9A0EC01FD2309719F01CD23197B2
:1005CC001FD219D2309729F4DF9ADE9ADD9AE8947B
:1005DC0021F8089521FE18C0AE98AF98E0916E01F5
:1005EC00E17011F0DA9A01C0DA98E0916E01E270D4
:1005FC0011F0D99A01C0D998E0916E01E47011F014
:10060C00D89A01C0D89846C0AE9AE0917501E030F6
:10061C0041F4E0917401E07121F4A0917901A330CF
:10062C0011F4AF9801C0AF9AE0917101F091720191
:10063C003196E0937101F0937201A0917101B09128
:10064C007201D297B0F4E0916E01E17011F0DA9A78
:10065C0001C0DA98E0916E01E27011F0D99A01C0F4
:10066C00D998E0916E01E47011F0D89A01C0D89835
:10067C0011C0A0917101B0917201A436E0E0BE07E7
:10068C0020F4DA98D998D89805C0E0E0E09371018D
:10069C00E093720108951A9310E08099116081998A
:1006AC001260E0917A01E0937901E0917B01E09393
:1006BC007A01EBE7F1E01083E0917A01A0917901E6
:1006CC00EA1731F4A0917A01E0917B01EA1709F065
:1006DC0095C0E0917C01A0917901EA1789F0E09135
:1006EC007D01EF5FE0937D01E150A0917D01A7308A
:1006FC0038F0E7E0E0937D01E0917901E0937C0133
:10070C00E0917C01A0917901EA1711F00C9403049B
:10071C00A33011F40C94E803E0917901E17089F0B5
:10072C00E0917501E160E0937501E07249F4E091AC
:10073C007501E061E0937501F9D0309709F065D14E
:10074C000BC0E0917501E17039F0E0E0E0937501C8
:10075C00EDD0309709F059D1E0917901E270E1F0D8
:10076C00E0917401E170B9F0E0917401E07151F421
:10077C00E0E0E0937701E0937801E0917401E061AF
:10078C00E0937401E0917401E260E0937401CED0C7
:10079C00309709F03AD115C0E0917401E07121F065
:1007AC00E0917401E27009F40CC0E0E0E093740194
:1007BC00BDD0309709F029D1E0E0E0938101E093BE
:1007CC0082011BC0A0917401A130B9F0E0917501B8
:1007DC00E17019F0E0E0E0937501A0917E01A83C76
:1007EC0060F0E0917401E07121F0E0917401E2702D
:1007FC0009F403C0E0E0E093740103C0E0E0E0938F
:10080C007D01199108955524849902C0E1E05E2A76
:10081C00859902C0E2E05E2A869902C0E4E05E2A75
:10082C00879902C0E8E05E2A989902C0E0E15E2A4E
:10083C00839902C0E0E25E2A829902C0E0E45E2A5B
:10084C00C4D031F4A0916B01E0916A01EA1709F070
:10085C0069C0E0917301EF5FE0937301A0916D01AA
:10086C00E0916A01EA1721F0A0917301A73008F416
:10087C0058C0E0916A01E0936D01E7E0E0937301E9
:10088C00E0916D01E17019F0DF98DA9A02C0DF9AFD
:10089C00DA98E0916D01E27019F0DE98D99A02C0F5
:1008AC00DE9AD998E0916D01E47019F0DD98D89A30
:1008BC0002C0DD9AD898E0916D01E87011F0DC98D7
:1008CC0001C0DC9AE0916D01E07111F0DB9801C080
:1008DC00DB9AE0916D01E07221F0E0916D01E07422
:1008EC0009F002C0C19A01C0C198E0916D01E07499
:1008FC0021F0E0916D01E07209F002C0C09A01C0D4
:10090C00C098E0916D01E77019F0AE98AF9809C0EE
:10091C00E0916D01E07619F0AE98AF9802C0AE9AF6
:10092C00AF9A03C0E0E0E09373010895E0917F017A
:10093C00F09180010895E0937F01F0938001089578
:10094C00E0E0E0937F01E09380010895A0918101A4
:10095C00B0918201AE35E1E0BE070895E0916101EE
:10096C00E0936201E0916001E093610150926001BB
:10097C000895A0916F01B0917001A83BEBE0BE0708
:10098C000895E0916401F09165010895E09364018C
:10099C00F09365010895E0937401D2DF689424F814
:1009AC000895A0917701B0917801A039E1E0BE07DC
:1009BC000895E0917501EF7EE09375010895E09143
:1009CC007501E062E09375010895E0916B01E0938D
:1009DC006C01E0916A01E0936B0150926A01A09165
:1009EC006C01E0916B01EA170895E0936E01E091C0
:1009FC007501E0710895E0916801F0916901089525
:100A0C00E0936801F09369010895ECE2F1E093CF73
:00000001FF
