:0E0000000C942B000C9400000C9400000C9447
:10000E0000000C9400000C9400000C9400000C9462
:10001E0000000C9400000C94BC000C9400000C9496
:10002E005B000C9400000C948F000C9400000C9458
:10003E0000000C9400000C9400000C9400000C9432
:10004E0000000C9400000000F894EE27ECBBF1E0E9
:10005E00FBBFEBBFE5BFF8E1F1BDE1BD8DE0A2E076
:10006E00BB27ED938A95E9F780E094E0A0E6ED9347
:10007E000197E9F7E4E5F0E085919591009761F03D
:10008E00A591B59105901590BF01F00105900D92C7
:10009E000197E1F7FB01F0CFEFE5EDBFE4E0EEBF36
:1000AE00C0E6D1E00C942E01AA93EA93FA93EFB72F
:1000BE00EA931A930A931BB10CB1E12FEC7101F57F
:1000CE00E02FEF3F11F446D51BC0EE3F59F4E1E0AF
:1000DE00E0939101E0919301E0939201E0E0E093CF
:1000EE0093010EC0A0919301A93050F4E0919301B9
:1000FE00EF5FE0939301E150F0E0EC56FE4F00838A
:10010E0009911991E991EFBFF991E991A99118958A
:10011E00AA93EA93FA93EFB7EA93A0918401A130E0
:10012E0021F4A0918501A13008F419C0E091850158
:10013E00A0918601AE1738F0E0E0E093860112D56B
:10014E00E09384010CC0E0918601F0E0E957FE4F88
:10015E00E081ECB9E0918601EF5FE0938601E991D1
:10016E00EFBFF991E991A9911895AA93BA93EA93E1
:10017E00FA93EFB7EA93E2B7E951E2BFF401319691
:10018E004F01E4E6F0E08E169F0610F188249924C4
:10019E00689420F824FE10C0DB98E8D43196EBD496
:1001AE00A0918001B0918101AC32E1E0BE0718F060
:1001BE00E7D4E89424F801C0DB9AE8D448F4E0913F
:1001CE008201F09183013196E0938201F0938301D5
:1001DE00E991EFBFF991E991B991A99118951A9307
:1001EE000A9300E010E0E0918401E03061F5BAD4AA
:1001FE00E0938601D3D4AFEFA083D0D4A985A0839A
:10020E00CDD4A885A083CAD4AF81A083C7D4AE8134
:10021E00A083C4D4AD81A083C1D4AC81A083BED44D
:10022E00AB81A083BBD4AA81A083B8D4AEEFA08348
:10023E00F801E0938501E0918701ECB9E1E0E093EC
:10024E008601E0938401198108812A960895E8EFCA
:10025E00EBBBEFEFEABBECEFE8BBE7E0E7BBEFEFA2
:10026E00E5BBE0ECE4BBEFEFE2BBE6E0E1BBE3E0D5
:10027E00E3BFE7EEE2BFE0E0ECBFEFBDEEBDEDBDEC
:10028E00ECBDE7BDE6BDEBBDEABDE9BDE8BDE2BD37
:10029E00E5BDE4BDE3BDE5BFE4BFE1E0E9BFE0E0FD
:1002AE00EBB9E8EDEAB9E6E8E0BDE0E0E0BDE3E396
:1002BE00E9B9E0E8E8B9E0E0E0BFE093840152D4A8
:1002CE00E0938601E0E0E0938701E8E8F1E0A0E04A
:1002DE00A083E9E8F1E0A083EAE8F1E0A083EBE88F
:1002EE00F1E0A083ECE8F1E0A083EDE8F1E0A0837B
:1002FE00EEE8F1E0A083EFE8F1E0A083E0E9F1E0C1
:10030E00A08328D4E0E0E0937401E0937501E093BC
:10031E009E01E0939F01AE9AAF9A929AE2E04E2E22
:10032E00789466247724E0E2F3E06E167F0690F46C
:10033E0020FE0FC0E89420F8F30131963F015524BA
:10034E009A9902C0E1E05E2A9D9902C0E2E05E2A1F
:10035E002BD4E9CF02D0FECFFFCF1A93E0919101BB
:10036E00E03071F1E0E0E0939101E0919501F0E071
:10037E00E17011F0E1E001C0E0E0E093A001E09156
:10038E009501F0E0E27011F0E1E001C0E0E0E093F1
:10039E00A101E0919601F0E0E17029F0E1E0E09337
:1003AE00A001E093A101E0E0EA93E0919401EA93C9
:1003BE00E0919501EA93E0919601EA93E0EFFFD385
:1003CE0020FE89C0E89420F887D0E2E04E2EE41596
:1003DE0011F4AED001C0BDD3E0E08399E1E01E2F51
:1003EE00A091A701A030D1F4E0917401A091A301D6
:1003FE00EA17A1F4E0917501A091A401EA1771F436
:10040E00E0E021FCE1E0A091A501EA1739F4E091CA
:10041E006E01A091A601EA1709F44AC0E091A70166
:10042E00E03019F4E3E0E093A701A091A701A13019
:10043E0028F0E091A701E150E093A701E0E4E093FA
:10044E007601E0917401E07121F0C7D3E061E09391
:10045E007601E0916E01E47021F0BFD3E860E09385
:10046E007601E0916E01E17021F0B7D3E460E09384
:10047E007601E0917501E03021F0AFD3E260E093B8
:10048E007601E0916E01E27021F0A7D3E160E09376
:10049E007601E0EAEA93E0917401EA93E091750146
:1004AE00EA93E0E021FCE1E0EA93E091760187D364
:1004BE001093A201E0917401E093A301E091750104
:1004CE00E093A401E0E021FCE1E0E093A501E091DE
:1004DE006E01E093A6013BC355249A9902C0E1E058
:1004EE005E2A9D9902C0E2E05E2A5ED3A09162016F
:1004FE00E0916101EA1731F4A0916101E091600190
:10050E00EA1709F014C0A0916301E0916001EA17A7
:10051E0071F0E0936301E0916301E17021F4E091E9
:10052E006301E27011F0E2E001C0E1E04E2E0895A9
:10053E00E0917D01E33051F4E0917501E03031F44A
:10054E00E0917401E03011F4839901C003C0C198A9
:10055E00C09802C02AD074D07BD0BAD002D18AD132
:10056E00CFD139D221FC02C03CD308F014C0E091A7
:10057E006F01F09170013196E0936F01F09370016D
:10058E0030D348F0E8EBFBE0E0936F01F09370019D
:10059E00E0E0E0936E01A0917F01A83C28F4E09189
:1005AE007F01EF5FE0937F010895839920C0F501ED
:1005BE0031965F01EEE1F0E0AE16BF06B8F05F01D6
:1005CE00E0E0E0936E01E0917401E17011F423FC20
:1005DE0001C00AC0E1E0E0937401DB9AE1E3E0932D
:1005EE007701E0E0E0937F01E89423F809C00A2C3C
:1005FE000B2821F0F50131975F0102C0689423F8B2
:10060E00A0917401A130A1F4E0917701EF5FE09326
:10061E007701A0917701A23311F4C19A08C0A0917D
:10062E007701A43620F0E0E0E0937701C19807C08F
:10063E00E0917401E03011F0C19A01C0C1980895A3
:10064E00E0917501E07111F0C09A01C0C098089553
:10065E00989929C0CED23196D1D2A0916401B09191
:10066E0065011597F8F0E5E0F0E0C8D2A0917401AD
:10067E00A13051F4E0917401E061C5D2E0E0E09365
:10068E007801E09379010EC0E0917401E03011F031
:10069E00C0D208F407C0E0E0B6D2E0E0E0938201F9
:1006AE00E093830109C0A5D2309719F0A2D23197F9
:1006BE00A5D29FD2309701F4ACD248F4E0917801E4
:1006CE00F09179013196E0937801F09379010895D4
:1006DE00879902C05BD208F438C0E0916601F091B0
:1006EE0067013196E0936601F0936701A091660170
:1006FE00B0916701159740F1A0916601B091670125
:10070E001597E1F4E0917401E030B9F4E0917501D0
:10071E00E07139F086D2E0917501E17009F087D26F
:10072E0008C0E0917501E061E0937501E0E0E093AF
:10073E006E0126D2689424F801C073D2E5E0F0E091
:10074E00E0936601F09367010BC0E0916601F091B2
:10075E006701309729F0E0E0E0936601E0936701CE
:10076E0008955524849902C0E1E05E2A859902C05D
:10077E00E2E05E2A869902C0E4E05E2AE0916B0117
:10078E00E0936C01E0916A01E0936B0150926A0173
:10079E00A0916C01E0916B01EA1731F4A0916B010D
:1007AE00E0916A01EA1709F064C0A0916D01E09131
:1007BE006A01EA1711F40C944004E0916D01A091C6
:1007CE006A01EA275E2E50FE04C0E0916A01E170D4
:1007DE0009F411C0E0916E01E17031F0E0916E010B
:1007EE00EE7FE0936E0107C0E0916E01E16025D2CD
:1007FE0011F017D21CD251FE04C0E0916A01E270D2
:10080E0009F411C0E0916E01E27031F0E0916E01D9
:10081E00ED7FE0936E0107C0E0916E01E2600DD2B4
:10082E0011F0FFD104D252FE04C0E0916A01E470CF
:10083E0009F411C0E0916E01E47031F0E0916E01A7
:10084E00EB7FE0936E0107C0E0916E01E460F5D19D
:10085E0011F0E7D1ECD1E0916A01E0936D01E0E097
:10086E00E0936F01E0937001E0E0E0937101E0939B
:10087E0072010895999934C0E6D13196E9D1A091CB
:10088E006801B0916901159750F1E5E0F0E0E0D113
:10089E00E0E0E0936F01E0937001E0916E01E17092
:1008AE0021F0DF98689421F801C0DF9AE0916E0183
:1008BE00E27021F0DE98689421F801C0DE9AE09192
:1008CE006E01E47021F0DD98689421F801C0DD9A84
:1008DE00E0916E01E77011F0DC9801C0DC9A0FC058
:1008EE00B2D1309719F0AFD13197B2D1ACD1309798
:1008FE0031F4DF9ADE9ADD9AE89421F8DC9A0895B5
:10090E0021FE19C0AE98AF989298E0916E01E170F9
:10091E0011F0DA9A01C0DA98E0916E01E27011F0EE
:10092E00D99A01C0D998E0916E01E47011F0D89A6D
:10093E0001C0D8984FC0AE9AE0917501E03041F4F5
:10094E00E0917401E07121F4A0917A01A33049F491
:10095E00AF989298A0917A01A33011F4AE98929A22
:10096E0003C0AE98AF98929AE0917101F091720126
:10097E003196E0937101F0937201A0917101B091E3
:10098E007201D297B0F4E0916E01E17011F0DA9A33
:10099E0001C0DA98E0916E01E27011F0D99A01C0AF
:1009AE00D998E0916E01E47011F0D89A01C0D898F0
:1009BE0011C0A0917101B0917201A436E0E0BE07A2
:1009CE0020F4DA98D998D89805C0E0E0E093710148
:1009DE00E093720108951A9310E0E091A001E030C7
:1009EE0009F01160E091A101E03009F01260E09190
:1009FE007B01E0937A01E0917C01E0937B01ECE7CF
:100A0E00F1E01083E0917B01A0917A01EA1731F4B5
:100A1E00A0917B01E0917C01EA1709F095C0E0916D
:100A2E007D01A0917A01EA1789F0E0917E01EF5FD6
:100A3E00E0937E01E150A0917E01A73038F0E7E00F
:100A4E00E0937E01E0917A01E0937D01E0917D01DA
:100A5E00A0917A01EA1711F00C94AA05A33011F4B3
:100A6E000C948F05E0917A01E17089F0E0917501A7
:100A7E00E160E0937501E07249F4E0917501E06187
:100A8E00E093750173D0309709F0E7D00BC0E09179
:100A9E007501E17039F0E0E0E093750167D03097B1
:100AAE0009F0DBD0E0917A01E270E1F0E09174019F
:100ABE00E170B9F0E0917401E07151F4E0E0E0937F
:100ACE007801E0937901E0917401E061E0937401A3
:100ADE00E0917401E260E093740148D0309709F020
:100AEE00BCD015C0E0917401E07121F0E091740169
:100AFE00E27009F40CC0E0E0E093740137D0309757
:100B0E0009F0ABD0E0E0E0938201E09383011BC0DB
:100B1E00A0917401A130B9F0E0917501E17019F066
:100B2E00E0E0E0937501A0917F01A83C60F0E091B8
:100B3E007401E07121F0E0917401E27009F403C0D8
:100B4E00E0E0E093740103C0E0E0E0937E011991D0
:100B5E0008950895E0E0E0939101E0939201E0930F
:100B6E0093010895E0E0E09385010895E0918001FE
:100B7E00F09181010895E0938001F0938101089531
:100B8E00E0E0E0938001E09381010895A09182015D
:100B9E00B0918301AE35E1E0BE070895F8010F5F15
:100BAE001F4FE957FE4F0895E0916101E0936201F6
:100BBE00E0916001E0936101509260010895EA9323
:100BCE00E0E0AE99E1E0EA93E0E0AF99E1E0EA938C
:100BDE00E0E09299E1E0EA9302CBE0917601F0E059
:100BEE000895A0916F01B0917001A83BEBE0BE0794
:100BFE000895E0916401F09165010895E093640118
:100C0E00F09365010895E0937401BADF689424F8B7
:100C1E000895A0917801B0917901A039E1E0BE0765
:100C2E000895E0917501EF7EE09375010895E091CE
:100C3E007501E062E09375010895E0936E01E09115
:100C4E007501E0710895E0916801F09169010895D0
:100C5E00E0936801F09369010895ECE2F1E08BCF27
:00000001FF
